31000001  200412E                                                       30004300040001200015460001OMNIUM DE PARTICIPAT                                                                                                                          
3400000260270412E0000138070080202021025263SAS  ETABLISSEMENTS CLEO00000030056300560001100005551234DEVRED                  Z9361159                        190412 1         00012820065050412               00000001                 000007946487
360000036027041200680751260412260412                                    30056300560001100005551234DEVRED                                                                                                                            000007946487
3400000460270412E0000300040077700010178323AMS ELLE DIF            27041230056300560064200032140002BURTON                  M9910005NATIXI                  220312 1          08200122  080312               00000001                 000001098031
360000056027041200680812260412260412                                    30056300560064200032140002BURTON                                                                                                                            000001098031
3400000660270412E0000100961851700061349502STEPHANOISE             27041230004300040056000015460023EURODIF                 02074922EFFETS A PAYER NATIXIS  160412 29900003  .  12030053190312               00000001                 000000043536
3400000760270412E0000145060541072803542385STOF                    27041230004300040056000015460023EURODIF                 F2382903NBP PARIS SIEGE SOCIAL  060412 1            12030116270312               00000002                 000000122654
3400000860270412E0000300661091500010336801PARITYS                 27041230004300040056000015460023EURODIF                 02034546NATEXIS BP              160412 1         *  12030125260312               00000003                 000000241995
3400000960270412E0000100961851700061349502STEPHANOISE             27041230004300040056000015460023EURODIF                 02074921EFFETS A PAYER NATIXIS  160412 29900003  .  12030130260312               00000004                 000000508954
3400001060270412E0000300040053200010122120ETS THIEFFRY            27041230004300040056000015460023EURODIF                 M9909484                        260312 0  12030133  12030133260312               00000005                 000000054526
3400001160270412E0000300271721800020004701FUTURE HOME             27041230004300040056000015460023EURODIF                 01033644NBP PARIS SIEGE SOCIAL  130412 1            12030167130412               00000006                 000003010188
3400001260270412E0000300661091500010336801PARITYS                 27041230004300040056000015460023EURODIF                 02034545NATEXIS BP              160412 1         *  12030199020412               00000007                 000000286213
3400001360270412E0000100961851700061349502STEPHANOISE             27041230004300040056000015460023EURODIF                 02074923EFFETS A PAYER NATIXIS  160412 29900003  .  12030202020412               00000008                 000000262310
3400001460270412E0000100961851700061349502STEPHANOISE             27041230004300040056000015460023EURODIF                 02074918EFFETS A PAYER NATIXIS  160412 29900003  .  12040013100412               00000009                 000000061950
3400001560270412E0000104680229314441900200C.A.D. SARL             27041230004300040056000015460023EURODIF                 01613739NBP PARIS SIEGE SOCIAL  270312 1111251    0SAVTEXCAD210312               00000010                 000000526814
3400001660270412E0000132590232011012500200TELATEX SAS             27041230004300040056000015460023EURODIF                 01613273NBP PARIS SIEGE SOCIAL  100212 1AC000330640000102307120112               00000011                 000001125436
3400001760270412E0000132590232011012500200TELATEX SAS             27041230004300040056000015460023EURODIF                 01614677NBP PARIS SIEGE SOCIAL  100412 1AC000331250000102307240112               00000012                 000000208463
3400001860270412E0000300760213710818400200FANTABIJOUX             27041230004300040056000015460023EURODIF                 01613806NBP PARIS SIEGE SOCIAL  280312 1          0012020163060312               00000013                 000000355471
3400001960270412E0000300040082300021974550BRUNSWICK               27041230004300040056000015460023EURODIF                 M9923479NATIXIS                 120412 1          0012030037110412               00000014                 000000058215
3400002060270412E0000300760411310761900200DUQUENNOY ET LEPERS SAS 27041230004300040056000015460023EURODIF                 01617033NBP PARIS SIEGE SOCIAL  170412 1          0012030042170412               00000015                 000000946958
3400002160270412E0000300760213710818400200FANTABIJOUX             27041230004300040056000015460023EURODIF                 01613807NBP PARIS SIEGE SOCIAL  280312 1          0012030043190312               00000016                 000000262498
3400002260270412E0000119070004000421507906SA   OLIVIER THEVENON SE27041230004300040056000015460023EURODIF                 Z8945874                        200312 10689121   0012030056140312               00000017                 000000297589
3400002360270412E0000166060000000180347111SAS  BOHIN FRANCE       27041230004300040056000015460023EURODIF                 00036360NATIXIS               ES260312 138913295110012030061260312               00000018                 000000281854
3400002460270412E0000167060509216591285302SAS DUTEXDOR CAF        27041230004300040056000015460023EURODIF                 795105  NBP PARIS SIEGE SOCIAL  160412 1          0012030078160412               00000019                 000001262976
3400002560270412E0000300560015101512660780TEXDECOR SAS            27041230004300040056000015460023EURODIF                 33214130NBP PARIS SIEGE SOCIAL  200312 1          0012030088200312               00000020                 000000203797
3400002660270412E000030002019750000060452AETS ROCLE PIERRE        27041230004300040056000015460023EURODIF                 48118647NBP PARIS SIEGE SOCIAL  180412 1          0012030098180412               00000021                 000000364970
3400002760270412E0000300760216311933300200PROPHIL SAS             27041230004300040056000015460023EURODIF                 01613808NBP PARIS SIEGE SOCIAL  280312 164299     0012030107140312               00000022                 000000282256
3400002860270412E0000100571908600013946301CPM                     27041230004300040056000015460023EURODIF                 00003015NATIXIS                 300312 2371450    0012030112270212               00000023                 000001996698
3400002960270412E0000300030119300020023515DECHELETTE MALLEVAL     27041230004300040056000015460023EURODIF                 U4JC3763EFET A PAYER NATIXIS    180412 112004475  0012030114260312               00000024                 000000085888
3400003060270412E0000135070014530828902179     SUBRENAT           27041230004300040056000015460023EURODIF                 Z8032080                        300312 1          0012030127260312               00000025                 000000375448
3400003160270412E0000166060000000180347111SAS  BOHIN FRANCE       27041230004300040056000015460023EURODIF                 00036361NATIXIS               ES270312 138913295110012030138270312               00000026                 000000270225
3400003260270412E0000300040082300021970864MFTA                    27041230004300040056000015460023EURODIF                 M9923541EFFETS A PAYER NAT      260312 1   33122 .0012030146260312               00000027                 000000127627
3400003360270412E0000119780000102724311020TEXTILES GRANGES SUR VOL27041230004300040056000015460023EURODIF                 33078612NBP PARIS SIEGE SOCIAL  270312 103272676020012030147270312               00000028                 000002449147
3400003460270412E0000176070000170212444882SAS  DMC                27041230004300040056000015460023EURODIF                 Z7368467                        170412 1          0012030150290212               00000029                 000000660779
3400003560270412E0000300040268100010084918ID WORLD                27041230004300040056000015460023EURODIF                 M9926167NATIXIS                 270312 1BRID2030470012030155210312               00000030                 000000286925
3400003660270412E000030002019000000607572KKATS                    27041230004300040056000015460023EURODIF                 47738516NBP PARIS SIEGE SOCIAL  030412 111/192    0012030178030412               00000031                 000001862890
3400003760270412E0000175159000008251530625PCI INTERNATIONAL       27041230004300040056000015460023EURODIF                 573846  NBP PARIS SIEGE SOCIAL  100412 1          0012030183210312               00000032                 000002298616
3400003860270412E0000100571908600013946301CPM                     27041230004300040056000015460023EURODIF                 00003016NATIXIS                 300312 2371451    0012030187270212               00000033                 000001480313
3400003960270412E0000176070000170212444882SAS  DMC                27041230004300040056000015460023EURODIF                 Z7368468                        170412 1          0012030218290212               00000034                 000000443688
3400004060270412E0000167060509250497628019SAS TEXDECOR            27041230004300040056000015460023EURODIF                 782574  NBP PARIS SIEGE SOCIAL  020412 1          0012030223020412               00000035                 000000043015
3400004160270412E0000166065336138913295111BOHIN FRANCE            27041230004300040056000015460023EURODIF                 00824489NATIXIS               DO100412 1          0012040019100412               00000036                 000000299857
3400004260270412E0000176070000170212444882SAS  DMC                27041230004300040056000015460023EURODIF                 Z7368469                        170412 1          0012040032030412               00000037                 000000084722
3400004360270412E0000135800000102328297120SAFECO SARL             27041230004300040056000015460023EURODIF                 33078612NBP PARIS SIEGE SOCIAL  270312 103272557020012630185270312               00000038                 000003315483
3400004460270412E000030002008690000000008DEUROFACTOR/EMBASSY      27041230004300040056000015460023EURODIF                 47897982NBP PARIS SIEGE SOCIAL  110412 12598525   12020238  050312               00000039                 000000229632
3400004560270412E0000300560014801485438852HSBC FACTG/VITA BLUE J  27041230004300040056000015460023EURODIF                 23203724NBP PARIS SIEGE SOCIAL  130412 14622995   12020250  050312               00000040                 000000784576
3400004660270412E0000300560002200222020370ANDRE HOULES ET CIE     27041230004300040056000015460023EURODIF                 37200009NBP PARIS SIEGE SOCIAL  190412 112030048  12030048  190312               00000041                 000000058185
3400004760270412E0000300560014801485438852HSBC FACTG/TIERCE       27041230004300040056000015460023EURODIF                 23203737NBP PARIS SIEGE SOCIAL  130412 14685095   12030055  260312               00000042                 000000342917
3400004860270412E0000300271607900020541112LE BLANC                27041230004300040056000015460023EURODIF                 00811894NBP PARIS SIEGE SOCIAL  190312 167839/1   12030080  140312               00000043                 000001474237
3400004960270412E0000300079999904164009000EUROFACTOR/EMBASSY      27041230004300040056000015460023EURODIF                 Z7374946                        180412 12637492   12030083  210312               00000044                 000000717002
3400005060270412E0000300661064400011053301POPSI SOURCING CONSULTIN27041230004300040056000015460023EURODIF                 01929708NBP PARIS SIEGE SOCIAL  270312 1          12030089  140312               00000045                 000001413672
3400005160270412E0000300560081108115133513CONSORTIUM MENAGER PARIS27041230004300040056000015460023EURODIF                 23204896NBP PARIS SIEGE SOCIAL  170412 1          12030091  190312               00000046                 000000228369
3400005260270412E0000300661080100011480601LIKE U                  27041230004300040056000015460023EURODIF                 02049232NBP PARIS SIEGE SOCIAL  170412 1          12030101  140312               00000047                 000001561498
3400005360270412E0000135800000102231710040SOVIMPORT               27041230004300040056000015460023EURODIF                 33078612NBP PARIS SIEGE SOCIAL  200312 1032125350412030105  200312               00000048                 000001141845
3400005460270412E0000300560002200222020370ANDRE HOULES ET CIE     27041230004300040056000015460023EURODIF                 37200014NBP PARIS SIEGE SOCIAL  190412 112030120  12030120  270312               00000049                 000000078808
3400005560270412E0000300560014801485438852HSBC FACTG/TIERCE       27041230004300040056000015460023EURODIF                 23203738NBP PARIS SIEGE SOCIAL  130412 14689577   12030132  260312               00000050                 000000909630
3400005660270412E0000300560017401742001284MEDIAC                  27041230004300040056000015460023EURODIF                 35207887NBP PARIS SIEGE SOCIAL  160412 29900003  .12030144  260312               00000051                 000000118862
3400005760270412E0000135800000102922911080MYSTIC                  27041230004300040056000015460023EURODIF                 33078612NBP PARIS SIEGE SOCIAL  260312 1032725570112030160  260312               00000052                 000000516672
3400005860270412E0000300661010400010045701SARL LESTY              27041230004300040056000015460023EURODIF                 01993778NBP PARIS SIEGE SOCIAL  090412 1          12030229  280312               00000053                 000002586231
3400005960270412E0000300661010400010045701SARL LESTY              27041230004300040056000015460023EURODIF                 02049239NBP PARIS SIEGE SOCIAL  170412 1          12040052  030412               00000054                 000000487968
3400006060270412E000030002036200000060876VLUANCE                  27041230004300040056000015460023EURODIF                 47367022NBP PARIS SIEGE SOCIAL  200312 1FC12303754          190312               00000055                 000000081247
3400006160270412E0000147070001001021039233     CREATIONS RICAMO   27041230004300040056000015460023EURODIF                 Z7811419                        110412 0F1201401            190312               00000056                 000000030983
360000626027041200680826260412260412                                    30004300040056000015460023EURODIF                                                                                                                           000039613278
39000063  270412                                                        3000430004                OMNIUM DE PARTICIPAT                                                                                                              000048657796